{
  "contractName": "TestUniswap",
  "abi": [
    {
      "inputs": [
        {
          "internalType": "address",
          "name": "_tokenIn",
          "type": "address"
        },
        {
          "internalType": "address",
          "name": "_tokenOut",
          "type": "address"
        },
        {
          "internalType": "uint256",
          "name": "_amountIn",
          "type": "uint256"
        },
        {
          "internalType": "uint256",
          "name": "_amountOutMin",
          "type": "uint256"
        },
        {
          "internalType": "address",
          "name": "_to",
          "type": "address"
        }
      ],
      "name": "swap",
      "outputs": [],
      "stateMutability": "nonpayable",
      "type": "function"
    },
    {
      "inputs": [
        {
          "internalType": "address",
          "name": "_tokenIn",
          "type": "address"
        },
        {
          "internalType": "address",
          "name": "_tokenOut",
          "type": "address"
        },
        {
          "internalType": "uint256",
          "name": "_amountIn",
          "type": "uint256"
        }
      ],
      "name": "getAmountOutMin",
      "outputs": [
        {
          "internalType": "uint256",
          "name": "",
          "type": "uint256"
        }
      ],
      "stateMutability": "view",
      "type": "function"
    }
  ],
  "bytecode": "0x608060405234801561001057600080fd5b50610eec806100206000396000f3fe608060405234801561001057600080fd5b50600436106100365760003560e01c80633c50eec11461003b578063d5bcb9b51461006b575b600080fd5b61005560048036038101906100509190610959565b610087565b60405161006291906109bb565b60405180910390f35b610085600480360381019061008091906109d6565b610426565b005b6000606073c02aaa39b223fe8d0a0e5c4f27ead9083c756cc273ffffffffffffffffffffffffffffffffffffffff168573ffffffffffffffffffffffffffffffffffffffff161480610118575073c02aaa39b223fe8d0a0e5c4f27ead9083c756cc273ffffffffffffffffffffffffffffffffffffffff168473ffffffffffffffffffffffffffffffffffffffff16145b1561020c57600267ffffffffffffffff81111561013857610137610a51565b5b6040519080825280602002602001820160405280156101665781602001602082028036833780820191505090505b509050848160008151811061017e5761017d610a80565b5b602002602001019073ffffffffffffffffffffffffffffffffffffffff16908173ffffffffffffffffffffffffffffffffffffffff168152505083816001815181106101cd576101cc610a80565b5b602002602001019073ffffffffffffffffffffffffffffffffffffffff16908173ffffffffffffffffffffffffffffffffffffffff168152505061035a565b600367ffffffffffffffff81111561022757610226610a51565b5b6040519080825280602002602001820160405280156102555781602001602082028036833780820191505090505b509050848160008151811061026d5761026c610a80565b5b602002602001019073ffffffffffffffffffffffffffffffffffffffff16908173ffffffffffffffffffffffffffffffffffffffff168152505073c02aaa39b223fe8d0a0e5c4f27ead9083c756cc2816001815181106102d0576102cf610a80565b5b602002602001019073ffffffffffffffffffffffffffffffffffffffff16908173ffffffffffffffffffffffffffffffffffffffff1681525050838160028151811061031f5761031e610a80565b5b602002602001019073ffffffffffffffffffffffffffffffffffffffff16908173ffffffffffffffffffffffffffffffffffffffff16815250505b6000737a250d5630b4cf539739df2c5dacb4c659f2488d73ffffffffffffffffffffffffffffffffffffffff1663d06ca61f85846040518363ffffffff1660e01b81526004016103ab929190610b6d565b600060405180830381865afa1580156103c8573d6000803e3d6000fd5b505050506040513d6000823e3d601f19601f820116820180604052508101906103f19190610cdc565b905080600183516104029190610d54565b8151811061041357610412610a80565b5b6020026020010151925050509392505050565b8473ffffffffffffffffffffffffffffffffffffffff166323b872dd3330866040518463ffffffff1660e01b815260040161046393929190610d97565b6020604051808303816000875af1158015610482573d6000803e3d6000fd5b505050506040513d601f19601f820116820180604052508101906104a69190610e06565b508473ffffffffffffffffffffffffffffffffffffffff1663095ea7b3737a250d5630b4cf539739df2c5dacb4c659f2488d856040518363ffffffff1660e01b81526004016104f6929190610e33565b6020604051808303816000875af1158015610515573d6000803e3d6000fd5b505050506040513d601f19601f820116820180604052508101906105399190610e06565b50606073c02aaa39b223fe8d0a0e5c4f27ead9083c756cc273ffffffffffffffffffffffffffffffffffffffff168673ffffffffffffffffffffffffffffffffffffffff1614806105c9575073c02aaa39b223fe8d0a0e5c4f27ead9083c756cc273ffffffffffffffffffffffffffffffffffffffff168573ffffffffffffffffffffffffffffffffffffffff16145b156106bd57600267ffffffffffffffff8111156105e9576105e8610a51565b5b6040519080825280602002602001820160405280156106175781602001602082028036833780820191505090505b509050858160008151811061062f5761062e610a80565b5b602002602001019073ffffffffffffffffffffffffffffffffffffffff16908173ffffffffffffffffffffffffffffffffffffffff1681525050848160018151811061067e5761067d610a80565b5b602002602001019073ffffffffffffffffffffffffffffffffffffffff16908173ffffffffffffffffffffffffffffffffffffffff168152505061080b565b600367ffffffffffffffff8111156106d8576106d7610a51565b5b6040519080825280602002602001820160405280156107065781602001602082028036833780820191505090505b509050858160008151811061071e5761071d610a80565b5b602002602001019073ffffffffffffffffffffffffffffffffffffffff16908173ffffffffffffffffffffffffffffffffffffffff168152505073c02aaa39b223fe8d0a0e5c4f27ead9083c756cc28160018151811061078157610780610a80565b5b602002602001019073ffffffffffffffffffffffffffffffffffffffff16908173ffffffffffffffffffffffffffffffffffffffff168152505084816002815181106107d0576107cf610a80565b5b602002602001019073ffffffffffffffffffffffffffffffffffffffff16908173ffffffffffffffffffffffffffffffffffffffff16815250505b737a250d5630b4cf539739df2c5dacb4c659f2488d73ffffffffffffffffffffffffffffffffffffffff166338ed173985858486426040518663ffffffff1660e01b8152600401610860959493929190610e5c565b6000604051808303816000875af115801561087f573d6000803e3d6000fd5b505050506040513d6000823e3d601f19601f820116820180604052508101906108a89190610cdc565b50505050505050565b6000604051905090565b600080fd5b600080fd5b600073ffffffffffffffffffffffffffffffffffffffff82169050919050565b60006108f0826108c5565b9050919050565b610900816108e5565b811461090b57600080fd5b50565b60008135905061091d816108f7565b92915050565b6000819050919050565b61093681610923565b811461094157600080fd5b50565b6000813590506109538161092d565b92915050565b600080600060608486031215610972576109716108bb565b5b60006109808682870161090e565b93505060206109918682870161090e565b92505060406109a286828701610944565b9150509250925092565b6109b581610923565b82525050565b60006020820190506109d060008301846109ac565b92915050565b600080600080600060a086880312156109f2576109f16108bb565b5b6000610a008882890161090e565b9550506020610a118882890161090e565b9450506040610a2288828901610944565b9350506060610a3388828901610944565b9250506080610a448882890161090e565b9150509295509295909350565b7f4e487b7100000000000000000000000000000000000000000000000000000000600052604160045260246000fd5b7f4e487b7100000000000000000000000000000000000000000000000000000000600052603260045260246000fd5b600081519050919050565b600082825260208201905092915050565b6000819050602082019050919050565b610ae4816108e5565b82525050565b6000610af68383610adb565b60208301905092915050565b6000602082019050919050565b6000610b1a82610aaf565b610b248185610aba565b9350610b2f83610acb565b8060005b83811015610b60578151610b478882610aea565b9750610b5283610b02565b925050600181019050610b33565b5085935050505092915050565b6000604082019050610b8260008301856109ac565b8181036020830152610b948184610b0f565b90509392505050565b600080fd5b6000601f19601f8301169050919050565b610bbc82610ba2565b810181811067ffffffffffffffff82111715610bdb57610bda610a51565b5b80604052505050565b6000610bee6108b1565b9050610bfa8282610bb3565b919050565b600067ffffffffffffffff821115610c1a57610c19610a51565b5b602082029050602081019050919050565b600080fd5b600081519050610c3f8161092d565b92915050565b6000610c58610c5384610bff565b610be4565b90508083825260208201905060208402830185811115610c7b57610c7a610c2b565b5b835b81811015610ca45780610c908882610c30565b845260208401935050602081019050610c7d565b5050509392505050565b600082601f830112610cc357610cc2610b9d565b5b8151610cd3848260208601610c45565b91505092915050565b600060208284031215610cf257610cf16108bb565b5b600082015167ffffffffffffffff811115610d1057610d0f6108c0565b5b610d1c84828501610cae565b91505092915050565b7f4e487b7100000000000000000000000000000000000000000000000000000000600052601160045260246000fd5b6000610d5f82610923565b9150610d6a83610923565b925082821015610d7d57610d7c610d25565b5b828203905092915050565b610d91816108e5565b82525050565b6000606082019050610dac6000830186610d88565b610db96020830185610d88565b610dc660408301846109ac565b949350505050565b60008115159050919050565b610de381610dce565b8114610dee57600080fd5b50565b600081519050610e0081610dda565b92915050565b600060208284031215610e1c57610e1b6108bb565b5b6000610e2a84828501610df1565b91505092915050565b6000604082019050610e486000830185610d88565b610e5560208301846109ac565b9392505050565b600060a082019050610e7160008301886109ac565b610e7e60208301876109ac565b8181036040830152610e908186610b0f565b9050610e9f6060830185610d88565b610eac60808301846109ac565b969550505050505056fea264697066735822122025303e9e1621162b0ae8615d884c06e4122ef99e7b6d8fb167f790470746fe5a64736f6c634300080b0033",
  "immutableReferences": {},
  "source": "// SPDX-License-Identifier: MIT\npragma solidity ^0.8;\n\nimport \"@openzeppelin/contracts/token/ERC20/IERC20.sol\";\nimport \"./interfaces/Uniswap.sol\";\n\ncontract TestUniswap {\n  address private constant UNISWAP_V2_ROUTER =\n    0x7a250d5630B4cF539739dF2C5dAcb4c659F2488D;\n  address private constant WETH = 0xC02aaA39b223FE8D0A0e5C4F27eAD9083C756Cc2;\n\n  function swap(\n    address _tokenIn,\n    address _tokenOut,\n    uint _amountIn,\n    uint _amountOutMin,\n    address _to\n  ) external {\n    IERC20(_tokenIn).transferFrom(msg.sender, address(this), _amountIn);\n    IERC20(_tokenIn).approve(UNISWAP_V2_ROUTER, _amountIn);\n\n    address[] memory path;\n    if (_tokenIn == WETH || _tokenOut == WETH) {\n      path = new address[](2);\n      path[0] = _tokenIn;\n      path[1] = _tokenOut;\n    } else {\n      path = new address[](3);\n      path[0] = _tokenIn;\n      path[1] = WETH;\n      path[2] = _tokenOut;\n    }\n\n    IUniswapV2Router(UNISWAP_V2_ROUTER).swapExactTokensForTokens(\n      _amountIn,\n      _amountOutMin,\n      path,\n      _to,\n      block.timestamp\n    );\n  }\n\n  function getAmountOutMin(\n    address _tokenIn,\n    address _tokenOut,\n    uint _amountIn\n  ) external view returns (uint) {\n    address[] memory path;\n    if (_tokenIn == WETH || _tokenOut == WETH) {\n      path = new address[](2);\n      path[0] = _tokenIn;\n      path[1] = _tokenOut;\n    } else {\n      path = new address[](3);\n      path[0] = _tokenIn;\n      path[1] = WETH;\n      path[2] = _tokenOut;\n    }\n\n    // same length as path\n    uint[] memory amountOutMins =\n      IUniswapV2Router(UNISWAP_V2_ROUTER).getAmountsOut(_amountIn, path);\n\n    return amountOutMins[path.length - 1];\n  }\n}\n",
  "sourcePath": "/Volumes/HDD1/#3417-TB/yt/contracts/testUniswap.sol",
  "compiler": {
    "name": "solc",
    "version": "0.8.11+commit.d7f03943.Emscripten.clang"
  },
  "schemaVersion": "3.4.5",
  "updatedAt": "2022-02-26T06:36:53.433Z",
  "devdoc": {
    "kind": "dev",
    "methods": {},
    "version": 1
  },
  "userdoc": {
    "kind": "user",
    "methods": {},
    "version": 1
  }
}